:020000040800F2
:10000000B0210424D103000885A30008AB8E0008AA
:100010002DA30008311B000869C100080000000082
:10002000000000000000000000000000F5AC000827
:10003000C12000080000000089A3000831AD0008BD
:10004000EB030008EB030008EB030008EB030008D8
:10005000EB030008EB030008EB030008EB030008C8
:10006000EB030008EB030008EB030008351B000856
:10007000451B0008EB030008EB030008EB03000836
:10008000EB030008EB030008EB030008EB03000898
:10009000EB030008EB030008EB030008EB03000888
:1000A000EB030008EB030008EB030008EB03000878
:1000B00071AF0008EB03000881AF0008EB030008F4
:1000C000EB030008EB030008EB030008EB03000858
:1000D000EB0300084DC00008EB030008EB03000829
:1000E000EB030008EB03000800000000EB0300082E
:1000F000EB030008EB030008EB030008EB03000828
:10010000EB030008EB030008C5AF0008EB03000891
:10011000EB030008EB030008EB030008EB03000807
:10012000EB030008EB030008EB030008EB030008F7
:10013000EB030008C1210008EB030008EB030008F3
:1001400000000000000000000000000000000000AF
:10015000EB030008EB030008EB030008EB030008C7
:10016000EB030008EB030008EB030008EB030008B7
:10017000EB030008EB030008EB030008000000009D
:10018000EB030008EB030008EB030008EB03000897
:10019000EB030008EB030008EB030008EB03000887
:1001A000EB030008EB030008EB030008EB03000877
:1001B000EB030008EB030008EB030008EB03000867
:1001C000EB030008EB030008EB030008EB03000857
:1001D000EB030008EB030008EB030008EB03000847
:1001E000EB030008EB030008EB030008EB03000837
:1001F000EB030008EB030008EB030008EB03000827
:10020000EB030008EB030008EB030008EB03000816
:10021000EB030008EB030008EB030008EB03000806
:10022000EB030008EB030008EB03000800000000EC
:10023000EB030008EB03000800000000EB030008DC
:10024000EB030008EB030008EB030008EB030008D6
:10025000EB030008EB030008EB030008EB030008C6
:10026000EB030008EB030008EB030008EB030008B6
:10027000EB030008EB030008EB030008000000009C
:10028000EB030008EB030008EB030008000000008C
:1002900000000000EB03000800F002F800F089F80D
:1002A0000AA090E8000C82448344AAF10107DA45D1
:1002B00001D100F07EF8AFF2090EBAE80F0013F09A
:1002C000010F18BFFB1A43F001031847F032020078
:1002D000103302000A444FF0000C10F8013B13F0F9
:1002E000070408BF10F8014B1D1108BF10F8015B8F
:1002F000641E05D010F8016B641E01F8016BF9D182
:1003000013F0080F1EBF10F8014BAD1C0C1B09D1D8
:100310006D1E58BF01F801CBFAD505E014F8016B4A
:1003200001F8016B6D1EF9D59142D6D370470000DC
:100330000023002400250026103A28BF78C1FBD8EE
:10034000520728BF30C148BF0B607047702900F0CA
:10035000248266291AF0D18603681B0A28BF41F05F
:100360008001642900F06081752900F05D817829A1
:1003700000F0FF81E42900F09381F52900F09081DD
:10038000F82900F00482632900F0FF86732900F049
:100390000487002070471FB51AF0AAFE00F014FF72
:1003A0000400002000211AF08DFEE0601FBD10B592
:1003B00010BD00F0C7FF1146FFF7EDFF18F08CFBF2
:1003C00000F0E5FF03B4FFF7F2FF03BC0BF009FFF9
:1003D0000948804709480047FEE7FEE7FEE7FEE7D9
:1003E000FEE7FEE7FEE7FEE7FEE7FEE70448054915
:1003F000054A064B704700006DAE000899020008E0
:10040000B0170424B0210424B0190424B019042422
:10041000704753EA020C00F069802DE9F04B4FF071
:100420000006002B1FBFB3FA83F503FA05F424FA84
:1004300005F65E4012BF1643B2FA82F502FA05F4E1
:10044000C5F120051EBF22FA05FC44EA0C04203544
:1004500056EA044C4FEA144418BF641C4FF00008DD
:100460004FF00009904271EB030C39D3002919BFFA
:10047000B1FA81F701FA07F6B0FA80F700FA07F649
:10048000C7F120071EBF20FA07FC46EA0C062037FA
:10049000B6FBF4FCA7EB0507103F07F01F0BCBF1F1
:1004A00020060CFA0BFB2CFA06F644BFB3460026D6
:1004B000202FA4BF5E464FF0000B5BEA060C08BF7E
:1004C0004FF0010B19EB0B09ABFB027C48EB060864
:1004D000C01B06FB02CC0BFB03CC71EB0C01C1E78C
:1004E0000B46024641464846BDE8F08B13B54FF037
:1004F00000004FF00001AFF30080BDE81C407047E2
:1005000010B54C1084EA530404D54042C1F10001F7
:1005100038BF491E1B4204D55242C3F1000338BF05
:100520005B1EFFF776FF14F0804F04D04042C1F10C
:10053000000138BF491E14F0004F04D05242C3F1ED
:10054000000338BF5B1E10BD0FB4044910B503AAE9
:10055000029800F027FE10BC5DF814FBE4000024B4
:100560000FB41CB5074B06AA7B446946009005985A
:1005700000F0E9FD0020694600F0F8FD1CBC5DF8C4
:1005800014FB0000010C000070B50446856900688A
:10059000C10601D5302600E02026C00707D070BD77
:1005A000D4E9012130469047206A401C20626D1E2C
:1005B000F6D570BD70B5044685690078C00707D1CF
:1005C00070BDD4E9012120209047206A401C2062A0
:1005D0006D1EF6D570BD70B50C460546012A05D0D6
:1005E0002878800600D5EA69002302E0012305E0AF
:1005F0005B1C934202D2E05C0028F9D1A869E6189E
:10060000C01AA861286A184428622846FFF7BCFF70
:1006100004E0D5E9012114F8010B9047B442F8D366
:100620002846FFF7C7FF70BD2DE9F04106460024BC
:1006300010687529314616A510D0AFF30080002848
:1006400002DA404213A507E031688A0701D512A5F6
:1006500002E0490704D511A5012401E0AFF30080B1
:1006600000210A2206F1240709E0B0FBF2FCB0FBEE
:10067000F2F302FB1C00303078541846491C002865
:10068000F3D123462A463046BDE8F04100F0EDBAEA
:10069000000000002D0000002B00000020000000E2
:1006A0002DE9F0418046D21D22F007020025D2E953
:1006B0000002F52915A614D0011E72F1000106DA18
:1006C0000023D0EB030063EB020211A608E0D8F888
:1006D00000108B0701D50FA602E0490701D50EA631
:1006E00001251146002408F1240704E000F078FAFF
:1006F00030323A55641C50EA0102F7D12B4632469B
:1007000021464046BDE8F04100F0AFBA00000000CD
:100710002D0000002B00000020000000F0B40D466A
:100720000188090502D5214C7C4402E01F4C7C4421
:100730000E34002100F1240608E002F00F07120930
:10074000E75D42EA03721B097754491C52EA03072A
:10075000F3D102780023120704D5702D06D009B119
:10076000022311342246F0BC00F07FBA012310347A
:10077000F8E770B504460D4621461068AFF30080D7
:10078000024629462046BDE870400023C6E7D21D38
:1007900022F00703D3E90023C0E70368126843F09F
:1007A000200303600823C3610023B7E70C2B02007A
:1007B0002DE9F05F894604464FF0000ADFF874B176
:1007C000FB44C0F820A02046E1688847002874D088
:1007D000252806D0D4E901219047206A401C2062D8
:1007E000F1E700265F462046E16888472028054655
:1007F00007DB312D05D2781910F8200C08B106431B
:10080000F1E7B00701D526F00406C4F81CA00027C4
:10081000C4F818A02A2D09D028460BF0DBFC38B309
:1008200004EB8708303DC8F8185019E059F8041B4C
:10083000204604EB87029161E1688847012F054655
:1008400018D1E069002820DA26F020061DE0D8F84B
:10085000180000EB800005EB40003038C8F81800A5
:100860002046E168884705460BF0B4FC0028EED12D
:10087000012F0AD02E2D08D12046E16888477F1C21
:100880000546022F46F02006C4DBA069002803DAE3
:10089000404246F00106A061F00701D026F01006A4
:1008A0006C2D0BD0682D09D04C2D39D06A2D35D048
:1008B000742D35D07A2D33D016E038E0E1682F461C
:1008C00020468847B842054609D16C2F26D04FF400
:1008D0008060E168064320468847054604E06C2FA7
:1008E0001AD04FF4807006430DB3A5F141001928CA
:1008F00002D8203546F400664A462946204626603E
:100900004E46FFF723FD80B101280BD0F61D26F0DF
:10091000070000F1080956E74020E4E78020D8E707
:100920000020D6E706F104094DE7284652E7206A81
:10093000BDE8F09F9C2A020040EA0103024630B560
:100940009B0710D14FF0013400E008C208C91D1BFD
:100950009D4315EAC41FF8D013F0FF0102F8011BF4
:100960000DD01B0AF8E711F8013B002B02F8013B00
:1009700005D011F8013B002B02F8013BF3D130BD4B
:10098000421E12F8013F002BFBD111F8013B002B56
:1009900002F8013BF9D17047032A40F2308010F091
:1009A000030C00F0158011F8013BBCF1020F62440A
:1009B00098BF11F801CB00F8013B38BF11F8013B9B
:1009C000A2F1040298BF00F801CB38BF00F8013B48
:1009D00011F0030300F02580083AC0F0088051F8B8
:1009E000043B083A51F804CBA0E80810F5E7121DC3
:1009F0005CBF51F8043B40F8043BAFF30080D207E2
:100A000024BF11F8013B11F801CB48BF11F8012BAD
:100A100024BF00F8013B00F801CB48BF00F8012BD0
:100A2000704710B5203AC0F00B80B1E81850203A5A
:100A3000A0E81850B1E81850A0E81850BFF4F5AF7E
:100A40005FEA027C24BFB1E81850A0E8185044BF08
:100A500018C918C0BDE810405FEA827C24BF51F875
:100A6000043B40F8043B08BF7047D20728BF31F869
:100A7000023B48BF11F8012B28BF20F8023B48BFBA
:100A800000F8012B70474FF000020429C0F01280DB
:100A900010F0030C00F01B80CCF1040CBCF1020F31
:100AA00018BF00F8012BA8BF20F8022BA1EB0C0106
:100AB00000F00DB85FEAC17C24BF00F8012B00F8FC
:100AC000012B48BF00F8012B70474FF0000200B522
:100AD000134694469646203922BFA0E80C50A0E861
:100AE0000C50B1F12001BFF4F7AF090728BFA0E80F
:100AF0000C5048BF0CC05DF804EB890028BF40F8DB
:100B0000042B08BF704748BF20F8022B11F0804F1C
:100B100018BF00F8012B704710B5044610F0030F02
:100B200008BF11F0030F40F015804FF0013E121F77
:100B3000C0F20E8051F8043BA3EB0E0C2CEA030C20
:100B40001CEACE1C08BF40F8043BF0D0A1F1040120
:100B500002F10402521E08DB11F8013B002B00F8E1
:100B6000013BF7D11146FFF78EFF204610BD000074
:100B70004FF0013C50F8042B51F8043B9A4215D138
:100B8000A2EB0C03934313EACC130BD150F8042BC4
:100B900051F8043B9A4209D1A2EB0C03934313EAA8
:100BA000CC13E7D04FF00000704700BFD01A01BA55
:100BB000B1FA81F101F0180122FA01F0CB40C1F144
:100BC0002001DBB2C0B2C01A2CFA01F3D11A914352
:100BD00011EAC311E6D170477047704770477047FC
:100BE00030B5B0F10A024FEA900E71F100034EEAFF
:100BF000817EB0EB0E0061EB91014FEA101E4EEAD0
:100C0000017E10EB0E0041EB11114FEA102E4EEA5F
:100C1000016E10EB0E0041EB11214FEA104E4EEA2F
:100C2000014E10EB0E0041EB1141401841F1000163
:100C30004FEAD00040EA41704FEAD10110EB800545
:100C40004FEA810444EA907444EB01046D1944EBCB
:100C50000404521BA3414FF0000348BF0A3200D5E1
:100C600030BD401C41F1000130BD2DE9F0470D467B
:100C700099469246044600F124080168880604D586
:100C8000E06921F01001216000E00120A84201DDAF
:100C9000471B00E00027A1697A1902EB0900081A36
:100CA000A0612078C00602D42046FFF76DFC002624
:100CB00008E0D4E901211AF806009047206A401C98
:100CC000761C20624E45F4DB2078C0060AD520460B
:100CD000FFF75AFC06E0D4E9012130209047206A52
:100CE000401C2062381EA7F10107F4DC07E0D4E9BC
:100CF000012118F805009047206A401C2062281E38
:100D0000A5F10105F3DC2046FFF754FC207800062E
:100D100002D50220BDE8F0870120FBE770472DE9EE
:100D2000FF4F0C461E464FF0FF378BB0D2E9000153
:100D3000DDF860800A908A46C1F30A5505B93D4640
:100D4000002108464FF00000BAF1000F00F4400007
:100D500005DA00EB80004FF4400101EA50004FEA51
:100D60009059B9F1010F00DDB9460A9850EA4A00DE
:100D70000ED044F61050A5F2FF3545432F14B8F1BC
:100D8000000F1ED07542291E1EDDC9F100021CE0B5
:100D9000B8F1010F4FF0000001D0302103E0F24321
:100DA00005E02154401CB042FBDB3046002200210C
:100DB00021540B99C1F80880C1E900200FB0BDE8AB
:100DC000F08FBD1B6D1CDEE74A4600DA694206A8BB
:100DD00000F03EFA06AB93E8070003AB83E8070098
:100DE00050460A9900F0DCFA8DE80700A0F50050A3
:100DF0001F3800900398002D0ADD42F21F014A4679
:100E00000844002303A90390684600F045FD09E06B
:100E1000A0F500504A461F38002303A903906846F6
:100E200000F04FFD8DE807000004000C03D04FF0E8
:100E3000FF30410800E01046B8F1000F03D0002257
:100E4000009215461EE0751E05D4FFF7C9FE30322C
:100E500062556D1EF9D5B3460122084302D0002227
:100E60007F1C04E02078302801D100227F1E002A58
:100E7000099784D01DE0112D07DAFFF7B1FE30325B
:100E800062556D1C50EA0102F5D1084302D000986A
:100E9000C8B10EE00021681E05E0235C625C63546B
:100EA0002254401E491C8142F7DBAB46A81B401E62
:100EB0000990002004F80B000B98099AC0F80880EC
:100EC000C0E9002B7AE711264FF0000857E72DE91B
:100ED000F04F88460446D21D22F0070191B0D1E9B7
:100EE0000001CDE90A010BF041F902460B98C00F51
:100EF00001D02D2007E02068810701D52B2002E0DA
:100F0000202101EAC000032A099001D0072A05DB4D
:100F100003464146204600F05BF90BE1207880064D
:100F200001D5E06900E00620B8F1650F814606D0E2
:100F3000B8F1660F18D0B8F1670F70D131E000201A
:100F4000B9F1110F009001DB112301E009F1010358
:100F50000AAA01A90CA8FFF7E2FEDDE90C70002641
:100F600009F10105834647E001204B4600904FF010
:100F700000470AAA01A90CA8FFF7D1FEDDE90DB0D0
:100F80000C995D46002610B909F101000D18B9EB66
:100F9000050003D4C0F1FF3609F10105A5EB0900F6
:100FA0002BE0B9F1010F01DA4FF001090020B9F18E
:100FB000110F0090484601DD112300E003460AAA04
:100FC00001A90CA8FFF7ABFEDDE90C704D46002629
:100FD0008346207800070AD4AB4500DA5D4601A8B5
:100FE000012D04DD411911F8011C302907D04F45AE
:100FF00002DA17F1040F04DA012082460FE06D1EB9
:10100000EEE7002F02DCED1B3E4403E0781CA84213
:1010100000DD7D1CB81B00F1010A4FF0004720786D
:10102000000703D4AA4501DB4FF0FF3A0021B7F1D6
:10103000004F0DF143088DF8431024D002202B23DC
:10104000002F01DA7F422D230A21021EA0F10100A8
:1010500000DC5FB197FBF1FC97FBF1F201FB1C7C1C
:1010600017460CF1300C08F801CDEEE7A8F10100AD
:1010700003702188090501D5452100E06521A0F113
:10108000010800F8011C09980FA9A1EB0807FF1D32
:1010900000B10120411901EBEA70A1693844081A36
:1010A000401EA0612078C00602D42046FFF76CFAEB
:1010B000099828B1D4E901219047206A401C206298
:1010C0002078C00622D52046FFF75EFA1EE0002EEB
:1010D00004DBB34502DD01A8805D00E03020D4E9E7
:1010E00001219047206A401C2062761CAAF1010071
:1010F0005FEA000A0AD100F067F8C0680168405C46
:10110000D4E901219047206A401C2062281EA5F1E5
:101110000105DCDC07E0D4E9012118F8010B904758
:10112000206A401C2062381EA7F10107F3DC20462C
:10113000FFF740FA032011B041E6000001694A1CA4
:1011400002610878704700B58FB0CDE90131002108
:10115000059105497944CDE9031011466846FFF72A
:1011600027FB0FB000BD0000E5FFFFFF0A6802F893
:10117000010B0A60704710B5436913B1AFF30080EB
:1011800001E0FFF728FA012010BD127800F12401D8
:101190000A7000224A700122EDE711684FF0FF3219
:1011A000E9E70000074B70B50D467B44FFF7CBFF26
:1011B0000446284600F0BEF810B14FF0FF3070BD75
:1011C000204670BDC7330100004870476C170424E7
:1011D0002DE9F0411F46044603260168072A01F461
:1011E000006004DB08B116A505E016A503E008B110
:1011F00015A500E015A521F010002060A069C01E13
:10120000A0610FB1401EA0612046FFF7BDF94FB1AC
:10121000D4E9012138469047206A401C2062C01C56
:10122000206206E0206AFAE7D4E9012115F8010BF3
:101230009047761EF8D22046FFF7BCF9BDE8F08152
:101240004E414E006E616E00494E4600696E66006A
:101250002DE9F047814616468AB0354878440DC8D6
:101260008DE80D0032487844801C03AC0DC884E83A
:101270000D0041F69B300844372190FBF1F290FBC2
:10128000F1F5A5F1800501FB12041B3C02D5644277
:10129000012000E00020DFF898A080460027FA44F3
:1012A000AAF1BE0A0EE0E0070AD03246684607EB14
:1012B000470101230AEB810100F003FB8DE80700E1
:1012C00064107F1C002CEED1194F7F44AE3F19E013
:1012D000E80715D007EB04100DF1180A90E80E008E
:1012E0008AE80E00C068F04201D198190890324691
:1012F000012306A903A800F0E4FA03AB83E8070082
:101300006D10641C002DE3D14FF001033246694695
:10131000B8F1000F03A802D000F0BEFA01E000F01F
:10132000D0FAC9E90001C9F808200AB0BDE8F08781
:1013300090200200007B00F080007047004870475A
:101340004C1704247546FFF7F9FFAE4605006946C1
:10135000534620F00700854618B020B5FFF746F841
:10136000BDE820404FF000064FF000074FF00008A6
:101370004FF0000B21F00701AC46ACE8C009ACE827
:10138000C009ACE8C009ACE8C0098D46704710B58B
:101390000446AFF300802046BDE81040FFF712B8C6
:1013A0005FEA400C08BF91F0000F4FEA8C234FEA30
:1013B000C12243EA51514FEA1C5018BF00F5F040DA
:1013C0004FEA300018BF41F000415FEA6C5C00F06A
:1013D0002980BCF1FF3F08BF40F080407047130CEC
:1013E00006BF12044FF0100C4FF0000C130E04BF98
:1013F00012020CF1080C130F04BF12010CF1040CC3
:10140000930F04BF92000CF1020CD30F04BF5200E3
:101410000CF1010C11464FF00002A0F11F00A0EBEF
:101420000C00704711F0004F08BF704731F00041C9
:101430003FF4D5AF0B0C06BF09044FF0100C4FF072
:10144000000C0B0E04BF09020CF1080C0B0F04BFBB
:1014500009010CF1040C8B0F04BF89000CF1020C84
:10146000CB0F04BF49000CF1010CCCF12003A0EB21
:101470000C0022FA03F302FA0CF241EA030100F134
:101480000100704720F07F4C80EA030023F07F4783
:10149000ACEB070303F57C5300F0004003F1FF03BE
:1014A0002DE980494FEA154B09B44FEA144325EA68
:1014B0000B4E24EA03480FF2042606EB13274908D3
:1014C0003E785FEA320203FB0667C7F5000707FBB9
:1014D00006F64FEA54374FEAD64606F1020607FBF6
:1014E000066CCCF1005C4FEA1C472CEA074C07FB6A
:1014F00006F40CFB06F504EB15464FEA961634BFCE
:1015000000204FF000404FEAD13706FB07FC4FEABE
:101510001C4C0CFB0BF7D21B03FB0CF761EB070118
:101520000CFB0EF7B0EB074072EB17420CFB08F711
:1015300034BFA2EB0742B2EB074261EB17414FEA1F
:101540000C444FEA910706FB07FC4FEA1C4C0CFBCE
:101550000BF7B0EBC74072EB573203FB0CF734BF0D
:10156000A2EBC742B2EBC74261EB57310CFB0EF75F
:10157000B0EBC70072EB57720CFB08F734BFA2EB5D
:10158000C702B2EBC70261EB5771039F4FEA81615B
:1015900041EA921104EBCC044FEAD1374FEA826260
:1015A00006FB07FC42EA90124FEA80604FEA1C4CAF
:1015B0000CFB0BF7D21B03FB0CF761EB07010CFBD9
:1015C0000EF7B0EB074072EB17420CFB08F734BF85
:1015D000A2EB0742B2EB074261EB17414FEA8C5591
:1015E0004FEA910704EB9C2406FB07FC4FEA1C4CD6
:1015F0000CFB0BF7B0EBC74072EB573203FB0CF759
:1016000034BFA2EBC742B2EBC74261EB57310CFBD0
:101610000EF7B0EBC70072EB57720CFB08F734BF44
:10162000A2EBC702B2EBC70261EB577115EB4C2579
:101630004FEA816141EA92114FEA82624FEAD13763
:1016400042EA901206FB07FC44F100044FEA806076
:101650004FEA1C4C0CFB0BF7D21B03FB0CF761EBA6
:1016600007010CFB0EF7B0EB074072EB17420CFBC7
:1016700008F734BFA2EB0742B2EB074261EB174118
:1016800015EB1C154FEA813141EA92414FEA823253
:1016900042EA90424FEA80304FEA0C7644F100046F
:1016A00048EA03434EEA0B484FF0000EB2EB080C39
:1016B00071EB030724BF624639464EEB0E0E4FF026
:1016C000000B0018524149414BEB0B0BB2EB080CDD
:1016D00071EB03077BF1000B24BF624639464EEBEA
:1016E0000E0E4FF0000B0018524149414BEB0B0B13
:1016F000B2EB080C71EB03077BF1000B24BF6246D1
:1017000039464EEB0E0E51EA020718BF46F00106AD
:1017100016EB0E7655F1000254F1000103D5BDE839
:101720008901BDE80088BDE88901BDE80048B61917
:10173000524141EB0101A3F10103704780807F7E9C
:101740007D7C7B7A79787776767574737271717037
:101750006F6E6E6D6C6C6B6A6A69686867666665E9
:101760006464636362616160605F5F5E5E5D5D5C77
:101770005C5B5B5A5A5959585857575656555555E8
:101780005454535352525251515050504F4F4F4E48
:101790004E4D4D4D4C4C4C4B4B4B4A4A4A49494996
:1017A00048484847474747464646454545444444D8
:1017B000444343434342424242414141002B9C4601
:1017C00030D477002BD01CB54FEA370703B44FF065
:1017D00010004FF01001BAF1000F06D0BCF1000F5D
:1017E000DCBF40F0080040F008014FF000000FBCE3
:1017F000BDE810400BF1010BBBF1010F08BF5FEA20
:10180000170722BF12F1010211F101014FF000414F
:1018100043F1000300F0004043EA00007047F9D3B1
:101820005708D0E746EA064613F1400F4FEA16463E
:101830001FDD13F1200FDFBF16430A4600212033BE
:101840005B42BED0C3F1200746EA064602FA07F71C
:101850004FEA164646EA0706C3F1200722FA03F2CA
:1018600001FA07F721FA03F14FF0000342EA0702F9
:10187000A7E746EA020646EA06464FEA164646EA61
:101880000106BCBF46EA0646360C4FF000034FF097
:1018900000024FF0000194E72DE9804C9A469346F0
:1018A00070B491E8380007C831EA400C48BF34EA08
:1018B000430C03D5FFF7E6FDFFF780FFF0BCBDE862
:1018C000008C2DE9804C9A46934670B491E838001C
:1018D00007C810F0804F08BF13F0804F03D100F00D
:1018E00005F8FFF76BFFF0BCBDE8008C20F07F47E8
:1018F00080EA030023F07F4C07EB0C03A3F57C5335
:1019000000F00040A3F1FE0392F0000F00F0B3805E
:1019100095F0000F00F077802DE901494FEA114062
:101920004FEA144621EA004800FB06FC24EA064779
:1019300008FB06F607FB08F800FB07F718EB06485C
:101940004CEB164C4FEA124B18EB07484FEA154682
:101950004CEB174022EA0B4E0BFB06FC25EA064730
:101960000EFB06F607FB0EFE0BFB07F71EEB064E03
:101970004CEB164C4FF000061EEB074E4CEB174B92
:1019800018EB0B0840F1000018EB0E0B58EB0008A9
:1019900040F100008F1A4FF000013CBFC943661BA5
:1019A00014BFB5EB040C00213CBFC943F61B4FEA42
:1019B00017444EEA8E0E27EA04454FEA1C4704FB03
:1019C00007622CEA074C05FB07F70CFB05F604FB46
:1019D0000CFC16EB074642EB174216EB0C4642EBAB
:1019E0001C421BEB060658EB0202414146EA9E06EA
:1019F00001D5BDE80189B619524141EB0101A3F1BE
:101A00000103BDE801894FEA14454FEA114724EA72
:101A1000054621EA074C05FB07F406FB07F70CFB1C
:101A200006F105FB0CFC11EB074144EB17444FEAB0
:101A3000124711EB0C4144EB1C4422EA074C05FB16
:101A400007F206FB07F70CFB06F605FB0CFC16EB92
:101A5000074642EB174216EB0C4642EB1C456A1850
:101A600054F1000148BF7047B619524141EB0101E2
:101A7000A3F10103704795F0000F37D04FEA1142F0
:101A80004FEA144721EA024624EA074C02FB07F119
:101A900006FB07F70CFB06F402FB0CFC14EB0744F7
:101AA00041EB17414FEA154714EB0C4441EB1C4145
:101AB00025EA074C02FB07F506FB07F70CFB06F6C9
:101AC00002FB0CFC16EB074645EB174516EB0C46E4
:101AD00045EB1C42121951F1000148BF7047B6197D
:101AE000524141EB0101A3F1010370474FEA144554
:101AF0004FEA114724EA054621EA074C05FB07F1A6
:101B000006FB07F70CFB06F24FF0000605FB0CFC8A
:101B100012EB074241EB174112EB0C4251EB1C4117
:101B200048BF7047921841EB0101A3F101037047D0
:101B300000BFFEE710B5024801F090FC10BD0000A8
:101B4000106D022410B5024801F088FC10BD0000A1
:101B5000886D02240146374A0868904249D0354AC8
:101B600018320868904244D0324A303208689042B5
:101B70003FD0304A4832086890423AD02D4A60320D
:101B80000868904235D02B4A78320868904230D0AD
:101B9000284A9032086890422BD0264AA83208681A
:101BA000904226D0244A0868904222D0224A183215
:101BB000086890421DD0204A30320868904218D000
:101BC0001D4A48320868904213D01B4A60320868A8
:101BD00090420ED0184A78320868904209D0164ACE
:101BE00090320868904204D0134AA83208689042A4
:101BF00001D1012000E00020B0B10A78103A18238A
:101C0000B2FBF3F000F007020C4B9A5CCA650328A4
:101C100005D90A686FF30902121D8A6503E00A6894
:101C20006FF309028A6503E0086820F0FF00886509
:101C3000886D70471000024010040240B031020865
:101C400010B502682B4C0368A34222D0294C1434EF
:101C50000368A3421DD0274C28340368A34218D040
:101C6000244C3C340368A34213D0224C5034036804
:101C7000A3420ED01F4C64340368A34209D01D4C0C
:101C800078340368A34204D01A4C8C340368A3420E
:101C900001D1012300E000238BB10378083B142419
:101CA000B3FBF4F1144B03EB81030366124B803357
:101CB000436601F01F040123A340836618E0037804
:101CC000103B1824B3FBF4F10C4B9A4204D80B4B95
:101CD000A83B9A4200D30831094B03EB810303660A
:101CE000074B8033436601F01F040123A340836642
:101CF00010BD00000854025800580258B8040240B1
:101D0000000802400179A9B3082940D8204B026895
:101D10009A4222D01E4B143302689A421DD01C4BAB
:101D2000283302689A4218D0194B3C3302689A4211
:101D300013D0174B503302689A420ED0144B6433C1
:101D400002689A4209D0124B783302689A4204D052
:101D50000F4B8C3302689A4201D1012200E000222D
:101D60004AB14A1E0B4B03EB8202C266094A40325B
:101D7000026708E00BE04A1E074B03EB8202C266D3
:101D8000054A403202674A1E012393404367704769
:101D90000854025800590258000902400146002028
:101DA0008A69D2B98A6A32B1012A0DD0022A03D0D7
:101DB000032A10D10EE000BFCA6A02F08072B2F1AD
:101DC000807F00D1012007E0CA6AB2F1C07F00D154
:101DD000012001E000E000BF36E08A69B2F5005F53
:101DE0001BD18A6A32B1012A07D0022A03D0032A02
:101DF00011D10AE000BF01200EE0CA6A02F0807231
:101E0000B2F1807F00D1012006E0CA6AB2F1C07F42
:101E100000D1012000E000BF16E08A6A32B1012A39
:101E200005D0022A04D0032A0CD103E000BF00BF72
:101E3000012008E0CA6A02F08072B2F1807F00D10E
:101E4000012000E000BF00BF70470000F0B5856DC5
:101E5000846D984F0668BE4270D0964F183706685A
:101E6000BE426BD0934F30370668BE4266D0914F6A
:101E700048370668BE4261D08E4F60370668BE4262
:101E80005CD08C4F78370668BE4257D0894F903768
:101E90000668BE4252D0874FA8370668BE424DD072
:101EA000854F0668BE4249D0834F18370668BE4248
:101EB00044D0814F30370668BE423FD07E4F48370E
:101EC0000668BE423AD07C4F60370668BE4235D0C5
:101ED000794F78370668BE4230D0774F9037066822
:101EE000BE422BD0744FA8370668BE4226D0734F2F
:101EF0000668BE4222D0714F14370668BE421DD01C
:101F00006E4F28370668BE4218D06C4F3C370668C3
:101F1000BE4213D0694F50370668BE420ED0674F9D
:101F200064370668BE4209D0644F78370668BE42FF
:101F300004D0624F8C370668BE4201D1012600E012
:101F400000263EB1D0E919767E60C66E16B1D0E9A2
:101F50001C767E60574F0668BE4249D0554F1837F1
:101F60000668BE4244D0534F30370668BE423FD069
:101F7000504F48370668BE423AD04E4F6037066829
:101F8000BE4235D04B4F78370668BE4230D0494FFD
:101F900090370668BE422BD0464FA8370668BE422F
:101FA00026D0454F0668BE4222D0434F18370668F8
:101FB000BE421DD0404F30370668BE4218D03E4F5B
:101FC00048370668BE4213D03B4F60370668BE42B2
:101FD0000ED0394F78370668BE4209D0364F903759
:101FE0000668BE4204D0344FA8370668BE4201D10D
:101FF000012600E00026DEB190F85C6006F01F07C5
:102000003F26BE40AE600668366826F48026076824
:102010003E60066873608668402E04D10668B26030
:102020000668F16044E00668B1600668F2603FE06F
:10203000224F0668BE4222D0204F14370668BE42A7
:102040001DD01E4F28370668BE4218D01B4F3C37A4
:102050000668BE4213D0194F50370668BE420ED0F4
:10206000164F64370668BE4209D0144F78370668A9
:10207000BE4204D0114F8C370668BE4201D1012602
:1020800000E00026A6B190F85C6006F01F0701266C
:10209000BE406660066873608668402E04D106689C
:1020A000B2600668F16003E00668B1600668F2603D
:1020B000F0BD000010000240100402400854025815
:1020C000704770B50346C3EB03154FF6FF7606EA7B
:1020D00045124FF0E0256C69AD69A9B213E04FF0ED
:1020E000E025AD69A8B2884204DD451A2544551B98
:1020F000AAB204E0884202DA0D1A551BAAB20146C0
:10210000002A00DC00E0EAE700BF70BD10B5002245
:1021100010E002EB4204036903EBC40100230B60EF
:102120004B608B60CB600B614B6100F1440343F863
:102130002210521C042AECD3002444658465C46533
:10214000446604660324036803F58053C3F83041F2
:10215000036803F580530469C3F81C4103694833DD
:10216000046804F58054C4F8283110BD10B500226D
:102170000EE002EB4204C36803EBC40100230B60D2
:102180004B608B60CB6000F1180343F82210521CA7
:10219000042AEED3002484620324036803F58053E9
:1021A000C3F82C41036803F58053C468C3F8144195
:1021B000036803F58053C468C3F8204110BD0000D4
:1021C00010B5024802F066FD10BD0000146B022439
:1021D00010B5A2B0044601208DF833000020129003
:1021E0008DF841008DF8430001208DF828008DF80E
:1021F00056008DF8320000208DF84C0001208DF83B
:10220000840040030F9000208DF85C0018908DF83A
:1022100085008DF886004FF4C360169000208DF87D
:1022200030000B9001208DF8350000208DF836002D
:102230008DF840001D901B9014908DF864008DF86F
:102240007A0001208DF842002020209001208DF896
:10225000440000208DF855004FF0405009904FF495
:1022600080400E9000208DF8310002201F90002049
:102270008DF878008DF879008DF8540001208DF8E4
:10228000340000201A9001208DF8700009A9204622
:1022900000F07CFA01208DF80400029000200090EC
:1022A0008DF81C008DF80D008DF80C004FF4001017
:1022B000069000208DF814004FF4001004900020C8
:1022C0008DF81D004FF4067008906946204600F016
:1022D000FFF922B010BD000070B506463068D0F896
:1022E000004224F4706404F03DFF05461348854223
:1022F00005D31348854202D244F400741AE0104812
:10230000854205D30F48854202D244F4407411E05F
:102310000C48854203D30C48854200D20AE00A48A3
:10232000854205D30948854202D244F4807401E015
:1023300044F480643068C0F8004270BD002D310163
:10234000C00E16020087930300E1F50580D1F00866
:102350002DE9F04F06460B46914606F11804226916
:10236000D4F810C0002754F822109D68BA46C868F7
:1023700000F00040B0F1004F04D004F1140050F818
:10238000220010B10220BDE8F08F187800F00400A0
:10239000C8B3C8686FF30F00D3F824B040EA0B004D
:1023A000C860C86840F48030C8603068006E40F48F
:1023B0008010D6F800B0CBF86000187800F0080064
:1023C00008B3B3F82CB088686BF31F408860C86806
:1023D00040F40030C860C86820F44020D3F830B022
:1023E00040EA0B00C8603068406E40F48010D6F8B8
:1023F00000B0CBF864003068006D40F08060D6F823
:1024000000B0CBF85000187800F0100058B1886880
:102410006FF30D00D3F818B040EA0B008860C8686D
:1024200040F08060C860187800F0040018B918788F
:1024300000F01000F0B1C86840F08040C860C86883
:1024400040F00040C86000BF521C042A00D3121F95
:1024500000BF54F822107F1CC86800F00040B0F1A3
:10246000004F07D154F82C10C86820F00040C86015
:10247000022088E77F1C2868086088686FF30D00D9
:10248000D5F804B040EA0B008860A86868B1AD6870
:10249000286848608868DFF834B200EA0B00B5F8B5
:1024A00004B040EA0B40886007E00020486088687C
:1024B000DFF818B200EA0B008860187800F010000E
:1024C000A0B1C86820F4F000B3F820B040EACB40D7
:1024D000C860C8686FF31100D3F81CB040EA0B0065
:1024E000C860C86840F48020C8601FE0C8686FF307
:1024F0000E00D3F804B040EA0B00C860187800F072
:10250000010038B1C86820F44030D3F814B040EA74
:102510000B00C860187800F0200038B1C86820F0BF
:102520004060D3F810B040EA0B00C860187800F0A3
:10253000040038B1886820F44040D3F828B040EA5D
:102540000B008860C86840F00050C860C86820F080
:102550008040C860C86840F00040C860187800F04B
:10256000020038B1C86820F06070D3F80CB040EABF
:102570000B00C86085E0C86820F08050C86000BFCC
:10258000521C042A00D3121F00BF54F82210C8683E
:1025900020F00050C860C86800F00040B0F1004F63
:1025A00004D004F1140050F82200B8B1624654F887
:1025B00022104FF000080DE0C86820F00040C8600D
:1025C00000BF521C042A00D3121F00BF54F822106F
:1025D00008F10108B845EFD30220D4E67F1CAD68AE
:1025E0002868086088686FF30D00D5F804B040EAE9
:1025F0000B008860A86868B1AD6828684860886882
:10260000DFF8C8B000EA0B00B5F804B040EA0B40B0
:10261000886007E0002048608868DFF8B0B000EA12
:102620000B008860187800F0100060B1C8686FF384
:102630001100D3F81CB040EA0B00C860C86840F431
:102640008020C86013E0C8686FF30E00D3F804B0B0
:1026500040EA0B00C860187800F0010038B1C86883
:1026600020F44030D3F814B040EA0B00C8600AF1FF
:10267000010AC86840F00040C860C86820F0804087
:10268000C860A86800287FF476AFB9F1000F04D0C5
:10269000886840F00040886003E0886820F00040CF
:1026A0008860C86840F08050C86004F11400D4F815
:1026B00024B040F822B0226172B60AF10100D4F8C9
:1026C00028B05844A06262B600205CE6FFFF00C05C
:1026D00010B5036803F580531B6847F60204A34353
:1026E0000C682343046804F5805423600C798B68DC
:1026F00043EA04330C7B43EAC432036803F5805396
:102700005B684DF20104A3431343046804F580544D
:1027100063604C7B0B6A43EA0442036803F5805311
:10272000D3F80031164C23401343046804F5805459
:10273000C4F800310C7D0B6943EA04134C7F43EA73
:102740000432036803F58053D3F804310D4C234061
:102750001343046804F58054C4F804310C7F8B697A
:1027600043EAC472036803F58053D3F80831064C7A
:1027700023401343046804F58054C4F8083110BDA5
:1027800000C0FEFFEFEFC0FFFFFFC07F10B50C6879
:102790008B6823430C7943EAC4630C7B43EAC4533C
:1027A0004C7B43EA84538C7B43EA4453CC7B43EA1F
:1027B00004530C7C0CB9012400E0002443EAC44318
:1027C0004C7C0CB9012400E0002443EA44438C7C97
:1027D00043EA04434C6923438C6923430C7F43EA57
:1027E00004334C7F43EAC4238C7F0CB9012400E0FE
:1027F000002443EA8423CC7F43EA442391F8204019
:102800000CB9012400E0002443EA042351F8244FCA
:1028100023430C7943EA04138C6843EA04020368F7
:102820001B683D4C23401343046823600B7E5B060A
:102830000C7D43EA04630C7B43EA84434C7B43EA0C
:1028400044438C7B24390CB9012400E0002443EA82
:1028500004434C6B43EA040203685B682F4C23403B
:1028600013430468636091F840404B6C43EA0422D0
:102870000368DB6840F20F14A34313430468E3606A
:1028800091F854400B6D43EA440391F84C400CB965
:10289000012400E0002443EAC41331F8484F43EA1E
:1028A000044203681B6F4FF60D7423401343046802
:1028B00023678B7B4C7B43EA44020368D3F8903058
:1028C00023F0030313430468C4F890300368D3F87B
:1028D000003D23F072030C6923430468C4F8003DF3
:1028E0000C7E4B6948390CB9012400E0002443EA0E
:1028F000841391F8614043EA041391F8624043EA7B
:10290000C4020368D3F8303D23F07B03134304680B
:10291000C4F8303D10BD0000838004000080F8C082
:1029200072B600BFFEE7000070B50446B3F5804FF5
:1029300013D1D1E9000540EA05108D6840EA052071
:102940008D6928438D8940EA054054F82250064E8F
:102950003540284344F8220003E06FF0704044F80B
:102960002200002070BD00000000F0CF70B50246CC
:10297000086852F8200020F001000E6842F8260096
:102980008868082801D1402500E0002548682843D0
:102990008E683043CE6830430E6930434E69304311
:1029A0008E693043CE6930430E6A30434E6A3043FD
:1029B0008E6A3043CE6A40EA0603086B0343486BD5
:1029C0000343886B0343114C44F4801444F4001413
:1029D00044F4E024086852F82000A04318430E682D
:1029E00042F82600086BB0F5801F07D1086828B1AF
:1029F000106820F480100E6B30431060086818B126
:102A000010684E6B30431060002070BD7FFB0800E3
:102A100030B50346D1E9000540EA05108D6840EA6B
:102A200005208D8940EA0545088A401E45EA005583
:102A3000087D801E45EA00608D692843551C53F8C7
:102A4000255005F040452843551C43F825001868DB
:102A500000F48010B0F5801F0BD1586820F470048A
:102A6000088A401E44EA0054586820F4700020434D
:102A70005860002030BD02460868B0B9D1E90103B2
:102A80001843CB6818430B6918434B6918438B698B
:102A90001843CB6918430B6A18434B6A18431368F1
:102AA0006FF30E031843106019E0D1E907031843D0
:102AB0004B6A1843136823F4F84318431060D1E9B4
:102AC00001031843CB6818430B6918434B6918433B
:102AD0008B69184353686FF30E031843506000204E
:102AE00070470246506943F6FE73984340EA41003E
:102AF00050610020704710B50346D1E9000420431F
:102B00008C68641E40EA4410CC6840EA44201C698A
:102B10006FF3150420431861002010BD30B5034643
:102B2000FAB90868401E4C68641E40EA04148868BC
:102B3000401E44EA0024C868401E44EA0034088A63
:102B4000401E44EA0044888A401E44EA0054087E3D
:102B5000401E44EA00609C6804F070442043986082
:102B600022E0C868401E0403888A401E44EA0050E0
:102B70009C680E4D2C40204398600868401E4C68AD
:102B8000641E40EA04148868401E44EA0024088A4F
:102B9000401E44EA0044087E401E44EA0060DC68AF
:102BA00004F070442043D860002030BDFF0F0FFFB9
:102BB0000148006870470000D80000244FF08040B2
:102BC000406A0549B0FBF1F201FB120003490860BD
:102BD000084600687047000040420F00E0000024F3
:102BE0002DE9F041044602F0CBFD804614B90120E6
:102BF000BDE8F08194F83500022808D08020606597
:102C000000BF002084F8340000BF0120F0E7FE4937
:102C10002068884249D0FC4918312068884244D055
:102C2000F9493031206888423FD0F749483120685F
:102C300088423AD0F44960312068884235D0F24960
:102C400078312068884230D0EF499031206888423E
:102C50002BD0ED49A8312068884226D0EB49206866
:102C6000884222D0E9491831206888421DD0E749BE
:102C700030312068884218D0E449483120688842C1
:102C800013D0E2496031206888420ED0DF497831A4
:102C90002068884209D0DD4990312068884204D0FC
:102CA000DA49A8312068884201D1012000E00020E3
:102CB00068B12068006820F01E0021680860206864
:102CC000406920F0800021684861256806E020689E
:102CD000006820F00E00216808602568CA49206855
:102CE000884270D0C8491831206888426BD0C649E4
:102CF00030312068884266D0C34948312068884214
:102D000061D0C1496031206888425CD0BE497831C9
:102D10002068884257D0BC4990312068884252D000
:102D2000B949A831206888424DD0B8492068884206
:102D300049D0B64918312068884244D0B34930316F
:102D4000206888423FD0B1494831206888423AD053
:102D5000AE4960312068884235D0AC49783120686E
:102D6000884230D0A9499031206888422BD0A749A9
:102D7000A8312068884226D0A5492068884222D000
:102D8000A3491431206888421DD0A1492831206808
:102D9000884218D09E493C312068884213D09C4913
:102DA0005031206888420ED09949643120688842A9
:102DB00009D0974978312068884204D094498C31F1
:102DC0002068884201D1012000E0002028B1206E57
:102DD000006820F48070216E08608B49206888426A
:102DE00049D0894918312068884244D08649303119
:102DF000206888423FD084494831206888423AD0D0
:102E0000814960312068884235D07F497831206817
:102E1000884230D07C499031206888422BD07A4952
:102E2000A8312068884226D078492068884222D07C
:102E300076491831206888421DD0744930312068A5
:102E4000884218D0714948312068884213D06F49B0
:102E50006031206888420ED06C4978312068884201
:102E600009D06A4990312068884204D06749A83166
:102E70002068884206D12068006820F0010021689F
:102E8000086005E02068006820F001002168086003
:102E900011E002F075FCA0EB080005280BD92020FA
:102EA000606500BF002084F8340000BF032084F870
:102EB000350001209CE6286800F001000028E8D1D8
:102EC00051492068884249D04F49183120688842CA
:102ED00044D04D493031206888423FD04A4948317A
:102EE000206888423AD0484960312068884235D00D
:102EF000454978312068884230D043499031206874
:102F000088422BD04049A8312068884226D03F49CA
:102F10002068884222D03D491831206888421DD05F
:102F20003A4930312068884218D038494831206801
:102F3000884213D035496031206888420ED0334929
:102F400078312068884209D0304990312068884221
:102F500004D02E49A8312068884201D1012000E028
:102F6000002040B1A66D94F85C0000F01F013F20E6
:102F70008840B06007E0A76D94F85C0000F01F0186
:102F800001208840786020492068884276D01E4918
:102F900018312068884271D01B493031206888423E
:102FA0006CD0194948312068884267D01649603191
:102FB0002068884262D014497831206888425DD008
:102FC000114990312068884258D00F49A8312068B3
:102FD000884253D00D49206888424FD00B491831A0
:102FE000206888424AD0094930312068884245D05B
:102FF000064948312068884240D004496031206841
:1030000088423BD0014905E0100002401004024014
:10301000085402587831206888422FD0254920680A
:1030200088422BD0234918312068884226D0224973
:103030002068884222D020491431206888421DD05F
:103040001D4928312068884218D01B493C3120682E
:10305000884213D018495031206888420ED0164952
:1030600064312068884209D0134978312068884249
:1030700004D011498C312068884201D1012000E040
:10308000002068B1D4E919104860E06E40B1E06EEC
:10309000006820F48070E16E0860D4E91C1048607C
:1030A00000BF002084F8340000BF012084F8350000
:1030B00000209DE5A00402400854025870B5044663
:1030C0000CB9012070BD94F83500022803D080208F
:1030D00060650120F6E7DC492068884249D0DA497A
:1030E00018312068884244D0D7493031206888425E
:1030F0003FD0D5494831206888423AD0D249603122
:103100002068884235D0D04978312068884230D054
:10311000CD499031206888422BD0CB49A831206816
:10312000884226D0C9492068884222D0C749183130
:10313000206888421DD0C54930312068884218D0A7
:10314000C24948312068884213D0C04960312068A4
:1031500088420ED0BD4978312068884209D0BB49E9
:1031600090312068884204D0B849A831206888424C
:1031700001D1012000E00020F0B3042084F83500E4
:10318000B149206888424BD0AF4918312068884245
:1031900046D0AD4930312068884241D0AA494831F3
:1031A000206888423CD0A84960312068884237D0E6
:1031B000A54978312068884232D0A34990312068EF
:1031C00088422DD0A049A8312068884228D09F4944
:1031D0002068884224D09D491831206888421FD039
:1031E0009A493031206888421AD09849483120687D
:1031F000884215D0954900E020E06031206888427F
:103200000ED0924978312068884209D08F49903198
:103210002068884204D08D49A8312068884206D1B0
:103220002068006820F001002168086009E120683A
:10323000006820F001002168086002E12068006851
:1032400020F00E00216808607F492068884249D03C
:103250007D4918312068884244D07B49303120684C
:1032600088423FD078494831206888423AD0764930
:1032700060312068884235D07349783120688842AF
:1032800030D071499031206888422BD06E49A831E6
:103290002068884226D06D492068884222D06B4938
:1032A0001831206888421DD0684930312068884232
:1032B00018D0664948312068884213D0634960318C
:1032C000206888420ED0614978312068884209D050
:1032D0005E4990312068884204D05C49A83120685A
:1032E000884206D12068006820F00100216808604B
:1032F00005E02068006820F001002168086052495C
:103300002068884270D050491831206888426BD0BC
:103310004D4930312068884266D04B494831206899
:10332000884261D048496031206888425CD0464973
:1033300078312068884257D04349903120688842CC
:1033400052D04149A831206888424DD03F49206879
:10335000884249D03D4918312068884244D03B49D1
:103360003031206888423FD038494831206888424F
:103370003AD0364960312068884235D033497831B7
:103380002068884230D031499031206888422BD063
:103390002E49A8312068884226D02D4920688842CD
:1033A00022D02B491431206888421DD02849283169
:1033B0002068884218D026493C312068884213D0C2
:1033C00023495031206888420ED021496431206859
:1033D000884209D01E4978312068884204D01C49AF
:1033E0008C312068884201D1012000E00020D8B152
:1033F000206E006820F48070216E0860A56D94F83E
:103400005C0000F01F01012088406860D4E91910B9
:103410004860E06E40B1E06E006820F48070E16EBC
:103420000860D4E91C10486000BF002084F8340014
:1034300000BF012084F83500206D10B12046216DB9
:10344000884700203EE600001000024010040240C1
:10345000085402580146486D704700002DE9F84FA6
:10346000044600200090FE4800684FF41651B0FB5F
:10347000F1FAA66DD4F858803768D8F80090F94969
:103480002068884249D0F74918312068884244D0E2
:10349000F4493031206888423FD0F24948312068F1
:1034A00088423AD0EF4960312068884235D0ED49F2
:1034B00078312068884230D0EA49903120688842CB
:1034C0002BD0E849A8312068884226D0E6492068F8
:1034D000884222D0E4491831206888421DD0E24950
:1034E00030312068884218D0DF494831206888424E
:1034F00013D0DD496031206888420ED0DA49783136
:103500002068884209D0D84990312068884204D088
:10351000D549A8312068884201D1012000E000206F
:1035200000287DD094F85C0000F01F01082088403E
:103530003840002868D0CB492068884249D0C94922
:1035400018312068884244D0C6493031206888420A
:103550003FD0C4494831206888423AD0C1496031DF
:103560002068884235D0BF4978312068884230D001
:10357000BC499031206888422BD0BA49A8312068D4
:10358000884226D0B8492068884222D0B6491831EE
:10359000206888421DD0B44930312068884218D054
:1035A000B14948312068884213D0AF496031206862
:1035B00088420ED0AC4978312068884209D0AA49A7
:1035C00090312068884204D0A749A83120688842F9
:1035D00004D12068006800F0040003E0206800685F
:1035E00000F0080080B12068006820F00400216825
:1035F000086094F85C0000F01F0108208840B0606B
:10360000606D40F00100606594F85C0000F01F01FF
:10361000012088403840E8B392492068884200E0A1
:10362000B8E24BD08F4918312068884246D08D4986
:1036300030312068884241D08A4948312068884228
:103640003CD0884960312068884237D0854978313C
:103650002068884232D083499031206888422DD03A
:103660008049A8312068884228D07F492068884254
:1036700024D07D491831206888421FD07A493031E2
:10368000206888421AD0784948312068884215D08D
:10369000754900E026E06031206888420ED072490A
:1036A00078312068884209D06F499031206888427B
:1036B00004D06D49A8312068884204D1206840694F
:1036C00000F0800002E020680068002050B194F80B
:1036D0005C0000F01F0101208840B060606D40F088
:1036E0000200606594F85C0000F01F01042088402F
:1036F0003840E8B35B49206888424BD059491831BB
:103700002068884246D0574930312068884241D0ED
:1037100054494831206888423CD052496031206881
:10372000884237D04F4978312068884232D04D499D
:103730009031206888422DD04A49A83120688842BB
:1037400028D049492068884224D047491831206848
:1037500088421FD044493031206888421AD04249FB
:1037600048312068884215D03F496031206800E028
:1037700024E088420ED03C4978312068884209D044
:10378000394990312068884204D03749A8312068EF
:10379000884204D12068006800F0020002E020683E
:1037A0000068002050B194F85C0000F01F01042074
:1037B0008840B060606D40F00400606594F85C0083
:1037C00000F01F01102088403840E8B325492068E8
:1037D000884251D023491831206888424CD0214971
:1037E00030312068884247D01E49483120688842DD
:1037F00042D01C496031206888423DD01949783157
:103800002068884238D0174990312068884233D0E8
:103810001449A831206888422ED013492068884274
:103820002AD0114918312068884225D00E493031FC
:103830002068884220D00C494831206888421BD03B
:1038400009496031206800E04DE0884214D0064903
:103850007831206888420FD003499031206805E014
:10386000000100241000024010040240884203D0EE
:10387000FE492068884204D12068006800F00800F2
:1038800003E02068006800F0040060B394F85C0076
:1038900000F01F0110208840B0602068006800F42C
:1038A000802080B12068006800F4002028B9206CD6
:1038B000C8B12046216C884715E0A06C98B120461D
:1038C000A16C88470FE02068006800F4807028B978
:1038D0002068006820F0080021680860206C10B1A2
:1038E0002046216C884794F85C0000F01F012020DE
:1038F0008840384000287DD0DD492068884249D082
:10390000DB4918312068884244D0D94930312068D9
:1039100088423FD0D6494831206888423AD0D449BD
:1039200060312068884235D0D1497831206888429A
:1039300030D0CF499031206888422BD0CC49A83173
:103940002068884226D0C949A8392068884221D0F9
:10395000C6499039206888421CD0C449783920680B
:10396000884217D0C14960392068884212D0BF49C7
:103970004839206888420DD0BC49303920688842D7
:1039800008D0BA4918392068884203D0B74920685E
:10399000884204D12068006800F0100003E020682D
:1039A000006800F0020028B394F85C0000F01F01EA
:1039B00020208840B06094F8350004282DD120687C
:1039C000006820F01600216808602068406920F037
:1039D000800021684861206C08B9A06C28B120687B
:1039E000006820F008002168086094F85C0000F08E
:1039F0001F0100E03FE03F208840B06000BF002092
:103A000084F8340000BF012084F83500206D10B127
:103A10002046216D8847BDE8F88F2068006800F4D3
:103A2000802080B12068006800F4002028B9606C14
:103A300008B32046616C88471DE0E06BD8B1204692
:103A4000E16B884717E02068006800F4807068B96F
:103A50002068006820F010002168086000BF002086
:103A600084F8340000BF012084F83500E06B10B109
:103A70002046E16B8847606D00287DD0606D00F0C6
:103A80000100E8B3042084F83500794920688842B1
:103A90004BD0774918312068884246D0744930317C
:103AA0002068884241D072494831206888423CD021
:103AB0006F4960312068884237D06D49783120687D
:103AC000884232D06A499031206888422DD06849B6
:103AD000A8312068884228D06449A83920688842E3
:103AE00023D062499039206888421ED05F497839D6
:103AF0002068884219D05D4960392068884200E01A
:103B000041E012D059494839206888420DD05749C0
:103B100030392068884208D05449183920688842D2
:103B200003D052492068884206D12068006820F0FE
:103B300001002168086005E02068006820F00100AD
:103B40002168086000BF0098401C0090504500D9D3
:103B500005E02068006800F001000028F3D100BFF4
:103B600000BF002084F8340000BF2068006800F027
:103B7000010028B1032000E00BE084F8350002E0EA
:103B8000012084F83500E06C002802D02046E16C6A
:103B90008847D9E137492068884222D03549143115
:103BA000206888421DD0334928312068884218D0C7
:103BB00030493C312068884213D02E49503120686A
:103BC00088420ED02B4964312068884209D02949A7
:103BD00078312068884204D026498C312068884298
:103BE00001D1012000E000200028D2D02068056823
:103BF00094F85C0000F01F010420884000EA0900EE
:103C0000D0B305F00400B8B394F85C0000F01F01D5
:103C100004208840C8F8040005F4004080B105F491
:103C2000803030B9A06C0028B3D02046A16C884702
:103C30008AE1206C0028ACD02046216C884783E1C3
:103C400005F02000F0BB0A492068884252D008499C
:103C50001831206888424DD00549303120688842AB
:103C600048D0034948312068884206E0B804024041
:103C700010000240085402584FE03BD0B34920687E
:103C8000884237D0B14918312068884232D0AF49D4
:103C90003031206888422DD0AC49483120688842B4
:103CA00028D0AB492068884224D0A949183120681F
:103CB00088421FD0A6493031206888421AD0A449D2
:103CC000483100E023E02068884213D0A0496031E9
:103CD000206888420ED09E4978312068884209D0F9
:103CE0009B4990312068884204D09949A8312068C6
:103CF000884206D12068006820F00800216808602A
:103D000005E02068006820F0040021680860206C4D
:103D100010B32046216C884716E194F85C0000F04F
:103D20001F010220884000EA0900E8B305F0020004
:103D3000D0B394F85C0000F01F0102208840C8F85E
:103D4000040005F4004070B105F4803028B9606CBF
:103D500010B12046616C8847F6E0E06BF0B3204676
:103D6000E16B8847F0E005F02000C0BB774960397F
:103D7000206888424DD0754948392068884248D02B
:103D8000724930392068884243D070491839206818
:103D900088423ED06D49206888423AD06B4918313C
:103DA0002068884235D000E04EE068493031206814
:103DB00088422ED0654948312068884229D064491C
:103DC0002068884225D0624918312068884220D076
:103DD0005F493031206888421BD001E06EE02DE061
:103DE0005B4948312068884213D0594960312068C6
:103DF00088420ED0564978312068884209D054490B
:103E000090312068884204D05149A8312068884206
:103E100006D12068006820F014002168086005E0E1
:103E20002068006820F00A002168086000BF0020B8
:103E300084F8340000BF012084F83500E06BE8B35B
:103E40002046E16B88477FE094F85C0000F01F019A
:103E50000820884000EA090080B305F0080068B334
:103E60003A496039206888424AD038494839206840
:103E7000884245D0354930392068884240D033499E
:103E80001839206888423BD030492068884237D0B2
:103E90002E4918312068884232D02C4930312068B0
:103EA00088422DD0294948312068884228D02849A5
:103EB0002068884224D02649183100E044E0206878
:103EC00088421DD0224930312068884218D02049CC
:103ED00048312068884213D01D49603120688842EB
:103EE0000ED01B4978312068884209D0184990319A
:103EF0002068884204D01649A8312068884206D13B
:103F00002068006820F01C002168086005E0206837
:103F1000006820F00E002168086094F85C0000F052
:103F20001F0101208840C8F804000120606500BF1F
:103F3000002084F8340000BF012084F83500E06CD4
:103F400010B12046E16C884700BF64E57000024074
:103F5000100402402DE9F041044601F011FC8046B6
:103F600014B90120BDE8F081FE492068884249D09B
:103F7000FC4918312068884244D0FA493031206821
:103F800088423FD0F7494831206888423AD0F54905
:103F900060312068884235D0F24978312068884203
:103FA00030D0F0499031206888422BD0ED49A831BB
:103FB0002068884226D0EC492068884222D0EA490D
:103FC0001831206888421DD0E74930312068884286
:103FD00018D0E54948312068884213D0E249603161
:103FE000206888420ED0E04978312068884209D0A4
:103FF000DD4990312068884204D0DB49A83120682F
:10400000884201D1012000E00020002873D0606ABE
:1040100000B100BF00BF002084F8340000BF0220C0
:1040200084F83500CF492068884249D0CD491831FD
:104030002068884244D0CB493031206888423FD044
:10404000C8494831206888423AD0C6496031206862
:10405000884235D0C34978312068884230D0C14980
:104060009031206888422BD0BE49A8312068884210
:1040700026D0BD492068884222D0BB49183120682B
:1040800088421DD0B84930312068884218D0B649DE
:1040900048312068884213D0B34960312068884293
:1040A0000ED0B14978312068884209D0AE499031AC
:1040B0002068884204D0AC49A8312068884206D1E3
:1040C0002068006820F001002168086005E0206891
:1040D000006820F00100216808600DE001F050FB4D
:1040E000A0EB0800052807D920206065032084F88C
:1040F0003500012036E76AE02068006800F0010022
:104100000028EBD12068056898480540D4E90201F1
:1041100008432169084361690843A1690843E169CB
:104120000843216A08430543606A042803D1D4E99F
:104130000B01084305438E4800686FF30F00B0F190
:10414000005F1DD36068292802D360682E2811D92A
:1041500060683F2802D3606842280BD9606847280E
:1041600002D36068482805D960684F2804D3606886
:10417000522801D8012000E0002008B145F4801544
:10418000206805602068456925F00705606A0543D9
:10419000606A04280DD1A06A0543E06A48B1204650
:1041A000FDF7FCFD28B140206065012084F8350052
:1041B000D8E6206845612046FDF7CCFC064694F819
:1041C0005C0000F01F013F208840B0609EE069491C
:1041D0002068884222D067491431206888421DD067
:1041E000644928312068884218D062493C312068EF
:1041F000884213D05F495031206888420ED05D4913
:1042000064312068884209D05A4978312068884250
:1042100004D058498C312068884201D1012000E047
:104220000020E0B353492068884222D0514914311C
:10423000206888421DD04F4928312068884218D014
:104240004C493C312068884213D04A49503120689B
:1042500088420ED0474964312068884209D04549D8
:1042600078312068884204D042498C3120688842E5
:1042700001D1012000E0002000B100BF00BF0020FC
:1042800084F8340000BF022084F8350020680568F7
:1042900039480540A068402802D1102106E02EE0F0
:1042A000A068802801D1C10100E00021E06841EA56
:1042B000D001206941EAD001606941EAD001A069DA
:1042C00041EAD001E06941EAD001206A41EA1010D8
:1042D00005432068056027492068401A1421B0FB77
:1042E000F1F08000E0652046FDF734FC074694F8C5
:1042F0005C0000F01F0101208840786006E040204B
:104300006065032084F8350001202BE615492068FC
:1043100088427FD013491831206888427AD01149E9
:1043200030312068884275D00E4948312068884273
:1043300070D00C496031206888426BD009497831CF
:104340002068884266D0074990312068884261D051
:104350000449A831206888425CD00349206888421B
:1043600058D00BE010000240100402403F8010FEC5
:104370000010005C085402580F00FEFF3B49183142
:104380002068884246D0394930312068884241D07F
:1043900036494831206888423CD034496031206831
:1043A000884237D0314978312068884232D02F494D
:1043B0009031206888422DD02C49A831206888424D
:1043C00028D02B492068884224D0294914312068FC
:1043D00088421FD026492831206888421AD02449B3
:1043E0003C312068884215D02149503120688842EC
:1043F00010D01F496431206888420BD01C497831A5
:104400002068884206D01A498C312068884200E032
:1044100000E001D1012000E0002000B32046FDF7BC
:104420000FFCA068802801D1002060602079216EF7
:104430000860D4E919104860606860B160680828B5
:1044400009D82046FDF75EFC0020E16E0860D4E943
:104450001C10486003E00020E066206760670020D1
:104460006065012084F8350000207BE510040240DF
:10447000085402582DE9F04104460D4616461F46E1
:104480004FF0000814B90120BDE8F08100BF94F896
:104490003400012801D10220F6E7012084F834001D
:1044A00000BF94F8350001287ED1022084F8350041
:1044B00000206065E4492068884249D0E24918310B
:1044C0002068884244D0E0493031206888423FD09B
:1044D000DD494831206888423AD0DB4960312068A4
:1044E000884235D0D84978312068884230D0D649C2
:1044F0009031206888422BD0D349A8312068884267
:1045000026D0D2492068884222D0D049183120686C
:1045100088421DD0CD4930312068884218D0CB491F
:1045200048312068884213D0C849603120688842E9
:104530000ED0C64978312068884209D0C3499031ED
:104540002068884204D0C149A8312068884206D139
:104550002068006820F001002168086005E02068FC
:10456000006820F00100216808603B463246294679
:104570002046FDF76BFCB449206888424BD0B24915
:1045800018312068884246D0AF49303120688842CF
:1045900041D0AD494831206888423CD0AA496031B9
:1045A0002068884237D000E042E1A749783120688E
:1045B000884230D0A4499031206888422BD0A2494B
:1045C000A8312068884226D0A0492068884222D09D
:1045D0009E491831206888421DD09C49303120689E
:1045E000884218D0994948312068884213D09749A9
:1045F0006031206888420ED0944978312068884222
:1046000009D0924990312068884204D08F49A8315E
:104610002068884201D1012000E0002080B120689C
:10462000006820F01E0040F0160021680860206C31
:10463000B0B12068006840F00800216808600FE011
:104640002068006820F00E0040F00A002168086031
:10465000206C28B12068006840F0040021680860E0
:1046600079492068884270D077491831206888429B
:104670006BD0754930312068884266D07249483124
:104680002068884261D070496031206888425CD0DF
:104690006D4978312068884257D06B499031206845
:1046A000884252D06849A831206888424DD0674975
:1046B0002068884249D0654918312068884244D032
:1046C00062493031206888423FD0604948312068D3
:1046D00088423AD05D4960312068884235D05B49D4
:1046E00078312068884230D058499031206888421B
:1046F0002BD05649A8312068884226D054492068DA
:10470000884222D052491431206888421DD0504935
:1047100028312068884218D04D493C3120688842B1
:1047200013D04B495031206888420ED0484964313B
:104730002068884209D0464978312068884204D0F0
:1047400043498C312068884201D1012000E00020DB
:1047500090B1206E006800F4803028B1206E0068AF
:1047600040F48070216E0860E06E28B1E06E006851
:1047700040F48070E16E086033492068884249D077
:10478000314918312068884244D02F49303120689F
:1047900088423FD02C494831206888423AD02A4983
:1047A00060312068884235D02749783120688842B6
:1047B00030D025499031206888422BD02249A83139
:1047C0002068884226D021492068884222D01F498B
:1047D0001831206888421DD01C4930312068884239
:1047E00018D01A4948312068884213D017496031DF
:1047F000206888420ED0154978312068884209D057
:10480000124990312068884204D01049A8312068AC
:10481000884206D12068006840F0010021680860E5
:1048200010E02068006840F001002168086009E09D
:1048300000BF002084F8340000BF4FF400606065C2
:104840004FF0010840461FE61000024010040240ED
:104850000854025870B5044600F092FF06462546FB
:10486000681C10B104480078054400BF00F088FFC0
:10487000801BA842FAD370BDFC000024F0B50446AA
:1048800004F14402536952F823109669906908B9FB
:104890000120F0BDD06900B1761C002522E0086936
:1048A00008604FF08070C860486928B14869886026
:1048B000C86840F00070C860C86840F00040C86038
:1048C000106A18B1C86840F08040C860701EA842E5
:1048D00007D900BF5B1C042B00D31B1F00BF52F87D
:1048E00023106D1CB542DAD3206800F58050C0F863
:1048F0002811002090610027276600BFC9E7704794
:1049000030B504460D4604F1440050F825100AB1B4
:10491000042D02D30120606730BD0A600A61C868B7
:1049200040F08070C8602BB18B604B61C86840F06C
:104930000070C860C86840F00040C8600020EBE725
:104940007047024609B9012070471068006800F0FE
:104950000C00C86210680068C0F3001081F82800DD
:104960001068006800F06000486210680068C0F3DA
:10497000002080F0010081F8200010680068C0F37A
:104980004020C87710680068C0F3802080F00100E4
:10499000887710680068C0F3C02048771068006806
:1049A000C0F3003008771068006800F40050886198
:1049B0001068006800F48040486110680068C0F327
:1049C0000040887410680068C0F3404080F0010027
:1049D000487410680068C0F3C04080F0010008749B
:1049E00010680068C0F30050C87310680068C0F316
:1049F0004050887310680068C0F380504873106896
:104A00000068C0F3C05008731068006800F0E060F0
:104A1000886010680068C0F3C060087110680068A2
:104A200000F0E040086010684068C0F30D00486383
:104A300010684068C0F3004080F0010081F8320047
:104A400010684068C0F3404081F831001068406849
:104A5000C0F3804081F8300010684068C0F3006007
:104A600081F8380010684068C0F34460C86310687B
:104A7000C068C0F3002081F840001068C06800F0F2
:104A80000F0048641068006FC0F3400081F85400C4
:104A90001068006FC0F3C01080F0010081F84C0076
:104AA0001068006F00F0700008651068006F000C5F
:104AB00088641068D0F8900000F0010081F856007A
:104AC0001068D0F89000C0F3400081F855001068DD
:104AD000D0F8000D00F0720088651068D0F8300D35
:104AE00000F02300C8651068D0F8300DC0F3C00096
:104AF00081F862001068D0F8300DC0F3001081F822
:104B000061001068D0F8300DC0F3801080F0010013
:104B100081F86000002017E7024609B901207047BC
:104B20001068806800F00100087010688068C0F3A9
:104B30004000C87010688068C0F380000871106879
:104B40008068C0F3C000087210688068C0F300106D
:104B5000487110688068C0F3401080F0010048720E
:104B60001068806800F0C000C86010688068C0F3FA
:104B70000020C87110688068C0F3402088711068F8
:104B80008068C0F38020887010688068C00F48700B
:104B90000020C4E72DE9F84F05468A4605F1440791
:104BA000D7F814800020009057F8286054461CB9AC
:104BB00001206867BDE8F88FB86948B9284600F059
:104BC000DFF908B90120F5E7D7F8148057F8286015
:104BD0004FF0000B1CE0306920606869606070690C
:104BE00020B1A4687069206068696060F068C0F3F3
:104BF0000E00009000BF08F10108B8F1040F01D3C6
:104C0000A8F1040800BF57F82860A4680BF1010B55
:104C1000B869401E5845DED8F068C0F30E01009810
:104C2000A1EB0009306920606869484502D3C4F8E7
:104C300004900DE0706948B168696060A4687069AB
:104C400020606869A9EB0000606001E00120B1E725
:104C50000020AFE72DE9F04180460E4608F14404FC
:104C60006569A06930B9404600F08AF910B90120A1
:104C7000BDE8F08100BFA069401E0544042D00D3AB
:104C80002D1F00BF54F82570F868C0F30E00306087
:104C90000020EDE710B50446206800F58050D0F8FC
:104CA000600100F04000402812D1206800F58050DB
:104CB000D0F8340100F04000402809D1204600F02F
:104CC000E4FA48F24001206800F58050C0F8601115
:104CD000206800F58050D0F8600100F0010088B134
:104CE000206800F58050D0F8340100F0010048B190
:104CF000204600F01BFC48F20101206800F58050BE
:104D0000C0F86011206800F58050D0F8600100F410
:104D10008040B0F5804F41D1206800F58050D0F838
:104D2000340100F48040B0F5804F37D1606F40F01F
:104D300008006067206800F58050D0F8600100F43A
:104D40008050B0F5805F17D1206800F58050D0F812
:104D5000600141F202110840A067206800F5805010
:104D6000D0F8340120F44041206800F58050C0F8AC
:104D70003411E020E0660EE0206800F58050D0F8A5
:104D8000600100F4CD40A0674FF4CD41206800F5EC
:104D90008050C0F860112046FFF7B1FD2068D0F8C0
:104DA000B00000F4C040B0F5C04F0AD12068D0F880
:104DB000B800E067E020E066204600F06AF90020D5
:104DC000E0672068D0F8B00000F0100010280CD187
:104DD0002068D0F8C00000F06000C4F880002046D1
:104DE00000F016FA0020C4F880002068D0F8B00067
:104DF00000F0200020280CD12068D0F8C00000F07E
:104E00000F00C4F884002046FFF79AFD0020C4F884
:104E100084000648006800F4800030B14FF4800040
:104E200002490860204600F087FB10BDA80000582A
:104E300038B504460CB9012038BDE06E10B92046E3
:104E400000F028F92320E06600BF4B48006840F0DE
:104E50000200494908600846006800F0020000901E
:104E600000BF00BF207A18B9002003F049F803E022
:104E70004FF4000003F044F8206800F5805000680B
:104E800040F00101206800F58050016000F078FCDE
:104E900005460BE000F074FC401BB0F5FA7F05D925
:104EA00004206067E020E0660120C5E7206800F587
:104EB0008050006800F001000028EBD12046FDF78B
:104EC0000BFA02F04FF92D49B0FBF1F0401E2168BA
:104ED000C1F8DC002046FDF77BF9206800F5805022
:104EE000D0F8000120F4E01040F40021206800F523
:104EF0008050C0F80011207D00F0030028B101208F
:104F00006067E020E066012096E7206800F58050A9
:104F1000D0F8080147F6FE718843616940EA410113
:104F2000206800F58050C0F808112046FDF71EF9F2
:104F30002046FDF7EBF8606800796168497940EA3E
:104F400001202168C1F800036068C078000661682C
:104F5000897840EA01406168497840EA0120616847
:104F6000097808432168C1F8040300206067102015
:104F7000E066206700205FE7F444025840420F00DB
:104F8000F0B5074607F14403196953F821200025BD
:104F900000240026986908B10020F0BD3DE06D1C9A
:104FA000D06800F0805000B3641C012C00D10E4684
:104FB00000BF491C042900D3091F00BF53F821205A
:104FC000D06800F0004058B9D06800F0804038B197
:104FD0000120D86100BF491C042900D3091F00BF6C
:104FE00019615E619C610120D7E7D06800F0005034
:104FF00050B10E46012400BF491C042900D3091FEB
:1050000000BF53F8212008E0641C00BF491C04299C
:1050100000D3091F00BF53F82120D06800F00040E2
:1050200008B9042DBBD384B319615E61314653F8CE
:105030002120002522E0106910604FF08070D060C0
:10504000506928B150699060D06840F00070D0601D
:10505000D06840F00040D060186A18B1D06840F0C5
:105060008040D060601EA84207D900BF491C0429B7
:1050700000D3091F00BF53F821206D1CA542DAD3CD
:10508000386800F58050C0F828210020986100BFE2
:1050900083E7704710B586B00446142101A8FBF7DA
:1050A00014FD5549206888427ED100BF53480068EE
:1050B00040F40040514908600846006800F4004090
:1050C000009000BF00BF00BF0846006840F4803079
:1050D00008600846006800F48030009000BF00BF00
:1050E00000BF0846006840F40030086008460068C9
:1050F00000F40030009000BF00BF00BF3F48083000
:10510000006840F004003D49083108600846006826
:1051100000F00400009000BF00BF00BF0846006818
:1051200040F0010008600846006800F001000090AF
:1051300000BF00BF00BF0846006840F002000860E2
:105140000846006800F00200009000BF00BF00BFEA
:105150000846006840F0400008600846006800F01B
:105160004000009000BF00BF32200190022002905A
:1051700000200390032004900B20059001A92048F3
:1051800000F0DCF9862001900220029000200390BC
:10519000032004900B20059001A91A4800F0CEF9D5
:1051A0004FF40060019000E024E002200290002013
:1051B0000390032004900B20059001A9124800F0F1
:1051C000BDF94FF4C04001900220029000200390EE
:1051D000032004900B20059001A90C4800F0AEF9C3
:1051E000002211463D2000F0B7FD3D2000F0A0FD5B
:1051F00005F0DEF906B010BD00800240D844025828
:105200000008025800000258000402580018025812
:1052100070472DE9F04704460F46904699462068AE
:10522000D0F8000200F0010010B10120BDE8F087C5
:105230002068D0F8005225F0787040EA475525F4F0
:10524000F81040EA084545F00C0545F001052068D6
:10525000C0F8005200F094FA064607E000F090FA19
:10526000801BB0F57A7F01D90120DFE72068D0F8F4
:10527000000200F001000028F0D12068D0F80402FC
:1052800080B2C9F800000020D0E700B513F030F874
:1052900000BD70B504460D460DB9012070BD206FEC
:1052A000102805D129462046FDF770FA0020F5E7C1
:1052B0000120F3E710B5024609B9012010BD0878B6
:1052C000CC7840EA44000C7940EA84000C7A40EA49
:1052D000C4004C7940EA04104C7A0CB9012400E077
:1052E000002440EA4410CC7940EA04208C7940EA5A
:1052F00044208C7840EA84204C7840EAC470CC6822
:1053000040EA040310688068034C20401843146886
:10531000A0600020D2E7000000F8FF7F70B50646CD
:105320003068D0F8004224F4706401F01BFF054699
:105330001348854205D31348854202D244F40074D1
:105340001AE01048854205D30F48854202D244F442
:10535000407411E00C48854203D30C48854200D2CA
:105360000AE00A48854205D30948854202D244F43E
:10537000807401E044F480643068C0F8004270BD7D
:10538000002D3101C00E16020087930300E1F505E0
:1053900080D1F00810B50146C86E10285BD12320DB
:1053A000C866002208E001F1440050F82230D868B5
:1053B00040F08040D860521C042AF4D301244C668B
:1053C0000868006840F002000C6820600868006807
:1053D00040F001000C6820600868D0F8000D40F033
:1053E00001000C68C4F8000D086800F58050D0F882
:1053F000040140F00104086800F58050C0F8044141
:10540000086800F58050D0F8080140F001040868F1
:1054100000F58050C0F80841086800F58050D0F8C9
:10542000600140F48174086800F58050C0F8604164
:10543000086800F58050D0F834014DF24104204353
:105440000C6804F58054C4F834011020C86622208A
:105450000867002010BD0120FCE72DE9F04104465B
:105460000F46154637B9606F40F0010060670120B4
:10547000BDE8F081E06E102856D100223946204662
:10548000FCF766FF28B1606F40F002006067012002
:10549000EEE704F11800A16A50F8218000BFA06A6D
:1054A000401CA062A06A042802D3A06A001FA06268
:1054B00000BF04F11800A16A50F82110206800F51F
:1054C0008050C0F8201100F05BF9064625E0206806
:1054D00000F58050D0F8600100F4805068B1606F32
:1054E00040F008006067206800F58050D0F8600147
:1054F000A067E020E0660120BAE7681C68B100F010
:105500003FF9801BA84200D83DB9606F40F004000D
:105510006067E020E0660120AAE7D8F80C0000F000
:1055200000400028D3D1A3E70120A1E70021014AD0
:1055300011607047CC00002470470000F8B50246A7
:105540000023734DDEE001279F400E6806EA070442
:10555000002C71D04E68012E08D04E68022E05D066
:105560004E68112E02D04E68122E13D190685F0043
:105570000326BE40B0435F00CE68BE40304390601B
:10558000506801269E40B0430E79C6F300169E4037
:1055900030435060D0685F000326BE40B0435F00D8
:1055A0008E68BE403043D0604E68022E02D04E68F6
:1055B000122E13D1DF0802F1200656F827005E07ED
:1055C000F70E0F26BE40B0435F07FF0E0E69BE40C8
:1055D0003043DF0802F1200646F8270010685F001C
:1055E0000326BE40B0430E7906F003065F00BE40BE
:1055F000304310604E6806F08056B6F1805F1BD1D4
:1056000000BF444E366846F00206424F3E603E46BA
:10561000366806F00206009600BF00BF3E4E9F08A7
:1056200056F827009E07370F0F26BE40B0433B4E6B
:10563000B24202D100262EE063E0394EB24201D1DF
:10564000012628E0374EB24201D1022623E0364E31
:10565000B24201D103261EE0344EB24201D10426EB
:1056600019E0334EB24201D1052614E0314EB24268
:1056700001D106260FE0304EB24201D107260AE0E2
:105680002E4EB24201D1082605E02D4EB24201D184
:10569000092600E00A269F073F0FBE4030431E4EFA
:1056A0009F0846F827002868A0434E6806F4803615
:1056B000B6F5803F00D1204328606868A0434E685B
:1056C00006F40036B6F5003F00D1204368604FF085
:1056D000B0463068A0434E6806F48016B6F5801FC9
:1056E00000D120434FF0B04630607068A0434E6850
:1056F00006F40016B6F5001F00D120434FF0B04667
:1057000070605B1C0E68DE40002E7FF41CAFF8BD9D
:1057100080000058F4440258080400580000025861
:105720000004025800080258000C025800100258E9
:105730000014025800180258001C02580020025899
:1057400000240258024613690B400BB1012000E00F
:105750000020704710B5426921EA020302EA010401
:1057600043EA0443836110BD0AB1816101E00B0487
:105770008361704701480068000C70470010005CAE
:105780000148006870470000F400002403480068E6
:10579000034909780844014908607047F40000246F
:1057A000FC00002410B5032000F014FB01F024FDE0
:1057B00010490968C1F303210F4A515C01F01F0130
:1057C00020FA01F40B48006800F00F001146085C55
:1057D00000F01F0024FA00F008490860084804603F
:1057E0000F2000F00FF808B1012010BD00F08EFA74
:1057F0000020FAE718440258E031020804010024AE
:105800000001002470B504461148007808B9012051
:1058100070BD0F4800784FF47A71B1FBF0F00D497C
:105820000968B1FBF0F5284602F074FB08B10120CD
:10583000EEE7102C07D200222146501E00F08CFA11
:105840000548046001E00120E2E70020E0E70000F5
:10585000FC00002400010024F800002470B5044678
:105860000E46154600BF94F8A000012801D1022081
:1058700070BD012084F8A00000BF022084F8A100C0
:1058800005EB850101EBC50204F1380101EB820053
:1058900034223146FBF7C5F82A463146204604F04B
:1058A0004BFA01202168486284F8A10000BF002063
:1058B00084F8A00000BF00BFDAE7000070B504461E
:1058C0000CB9012070BD94F8A10028B9002084F81B
:1058D000A000204600F07EF8022084F8A100206895
:1058E000806920F0704021688861D4E90101084393
:1058F000E1680843216908432168896908432168F0
:105900008861206880683249084021688860A08AE0
:10591000050420688068A1692943084321688860DC
:105920002068C0682A4908402168C860A08B050427
:105930002068C068216A294308432168C86020683C
:1059400000692349084021680861A08C050420688B
:105950000069A16A294308432168086120684069F9
:105960001B49084021684861A08D050420684069F2
:10597000216B294308432168486194F835000502EA
:1059800094F8360006042068C06A00F07F40216861
:10599000C86246EA050094F8341008432168C96AD1
:1059A00008432168C8622068406B40F00600216807
:1059B00048632068806940F0010021688861002008
:1059C000C4F8A400012084F8A10000207AE70000B8
:1059D00000F800F010B586B0044600BF5D480068CE
:1059E00040F008005B4908600846006800F00800C5
:1059F000009000BF00BF00BF56481038006840F05C
:105A000010005449103908600846006800F0100082
:105A1000009000BF00BF00BF00BF4E48001F0068DD
:105A200040F002004B49091F08600846006800F07A
:105A30000200009000BF00BF00BF00BF00BF0846CB
:105A4000006840F0200008600846006800F0200070
:105A5000009000BF00BF00BF00BF00BF0846006845
:105A600040F4807008600846006800F48070009080
:105A700000BF00BF00BF00BF00BF0846006840F481
:105A8000807008600846006800F48070009000BFD5
:105A900000BF00BF00BF00BF0846006840F04000E4
:105AA00008600846006800F04000009000BF00BF9A
:105AB00000BF00BF0846006840F08000086008464C
:105AC000006800F08000009000BF00BF202001901F
:105AD0000120029003900320049001A91E48FFF7C3
